{
  "_format": "hh-sol-artifact-1",
  "contractName": "EIP712MetaTransaction",
  "sourceName": "contracts/EIP712MetaTransaction.sol",
  "abi": [
    {
      "inputs": [
        {
          "internalType": "string",
          "name": "name",
          "type": "string"
        },
        {
          "internalType": "string",
          "name": "version",
          "type": "string"
        }
      ],
      "stateMutability": "nonpayable",
      "type": "constructor"
    },
    {
      "anonymous": false,
      "inputs": [
        {
          "indexed": false,
          "internalType": "address",
          "name": "userAddress",
          "type": "address"
        },
        {
          "indexed": false,
          "internalType": "address",
          "name": "relayerAddress",
          "type": "address"
        },
        {
          "indexed": false,
          "internalType": "bytes",
          "name": "functionSignature",
          "type": "bytes"
        }
      ],
      "name": "MetaTransactionExecuted",
      "type": "event"
    },
    {
      "inputs": [
        {
          "internalType": "address",
          "name": "userAddress",
          "type": "address"
        },
        {
          "internalType": "bytes",
          "name": "functionSignature",
          "type": "bytes"
        },
        {
          "internalType": "bytes32",
          "name": "sigR",
          "type": "bytes32"
        },
        {
          "internalType": "bytes32",
          "name": "sigS",
          "type": "bytes32"
        },
        {
          "internalType": "uint8",
          "name": "sigV",
          "type": "uint8"
        }
      ],
      "name": "executeMetaTransaction",
      "outputs": [
        {
          "internalType": "bytes",
          "name": "",
          "type": "bytes"
        }
      ],
      "stateMutability": "payable",
      "type": "function"
    },
    {
      "inputs": [
        {
          "internalType": "address",
          "name": "user",
          "type": "address"
        }
      ],
      "name": "getNonce",
      "outputs": [
        {
          "internalType": "uint256",
          "name": "nonce",
          "type": "uint256"
        }
      ],
      "stateMutability": "view",
      "type": "function"
    }
  ],
  "bytecode": "0x60806040523480156200001157600080fd5b506040516200123b3803806200123b833981810160405281019062000037919062000134565b81816040518060800160405280604f8152602001620011ec604f91398051906020012082805190602001208280519060200120306200007b620000ba60201b60201c565b60001b60405160200162000094959493929190620001c9565b604051602081830303815290604052805190602001206000819055505050505062000330565b600046905090565b6000620000d9620000d3846200025a565b62000226565b905082815260208101848484011115620000f257600080fd5b620000ff848285620002cb565b509392505050565b600082601f8301126200011957600080fd5b81516200012b848260208601620000c2565b91505092915050565b600080604083850312156200014857600080fd5b600083015167ffffffffffffffff8111156200016357600080fd5b620001718582860162000107565b925050602083015167ffffffffffffffff8111156200018f57600080fd5b6200019d8582860162000107565b9150509250929050565b620001b2816200028d565b82525050565b620001c381620002a1565b82525050565b600060a082019050620001e06000830188620001b8565b620001ef6020830187620001b8565b620001fe6040830186620001b8565b6200020d6060830185620001a7565b6200021c6080830184620001b8565b9695505050505050565b6000604051905081810181811067ffffffffffffffff8211171562000250576200024f62000301565b5b8060405250919050565b600067ffffffffffffffff82111562000278576200027762000301565b5b601f19601f8301169050602081019050919050565b60006200029a82620002ab565b9050919050565b6000819050919050565b600073ffffffffffffffffffffffffffffffffffffffff82169050919050565b60005b83811015620002eb578082015181840152602081019050620002ce565b83811115620002fb576000848401525b50505050565b7f4e487b7100000000000000000000000000000000000000000000000000000000600052604160045260246000fd5b610eac80620003406000396000f3fe6080604052600436106100295760003560e01c80630c53c51c1461002e5780632d0335ab1461005e575b600080fd5b610048600480360381019061004391906106cb565b61009b565b6040516100559190610af8565b60405180910390f35b34801561006a57600080fd5b50610085600480360381019061008091906106a2565b6103bf565b6040516100929190610b9a565b60405180910390f35b606060006100a886610408565b90506000357fffffffff00000000000000000000000000000000000000000000000000000000167bffffffffffffffffffffffffffffffffffffffffffffffffffffffff1916817bffffffffffffffffffffffffffffffffffffffffffffffffffffffff1916141561014f576040517f08c379a000000000000000000000000000000000000000000000000000000000815260040161014690610b3a565b60405180910390fd5b60006040518060600160405280600160008b73ffffffffffffffffffffffffffffffffffffffff1673ffffffffffffffffffffffffffffffffffffffff1681526020019081526020016000205481526020018973ffffffffffffffffffffffffffffffffffffffff1681526020018881525090506101d0888288888861042c565b61020f576040517f08c379a000000000000000000000000000000000000000000000000000000000815260040161020690610b7a565b60405180910390fd5b61026160018060008b73ffffffffffffffffffffffffffffffffffffffff1673ffffffffffffffffffffffffffffffffffffffff1681526020019081526020016000205461053b90919063ffffffff16565b600160008a73ffffffffffffffffffffffffffffffffffffffff1673ffffffffffffffffffffffffffffffffffffffff168152602001908152602001600020819055506000803073ffffffffffffffffffffffffffffffffffffffff16898b6040516020016102d19291906109d1565b6040516020818303038152906040526040516102ed91906109ba565b6000604051808303816000865af19150503d806000811461032a576040519150601f19603f3d011682016040523d82523d6000602084013e61032f565b606091505b509150915081610374576040517f08c379a000000000000000000000000000000000000000000000000000000000815260040161036b90610b1a565b60405180910390fd5b7f5845892132946850460bff5a0083f71031bc5bf9aadcd40f1de79423eac9b10b8a338b6040516103a793929190610a30565b60405180910390a18094505050505095945050505050565b6000600160008373ffffffffffffffffffffffffffffffffffffffff1673ffffffffffffffffffffffffffffffffffffffff168152602001908152602001600020549050919050565b6000808251141561041f57600060e01b9050610427565b602082015190505b919050565b600080600161044261043d88610551565b6105b9565b848787604051600081526020016040526040516104629493929190610ab3565b6020604051602081039080840390855afa158015610484573d6000803e3d6000fd5b505050602060405103519050600073ffffffffffffffffffffffffffffffffffffffff168173ffffffffffffffffffffffffffffffffffffffff161415610500576040517f08c379a00000000000000000000000000000000000000000000000000000000081526004016104f790610b5a565b60405180910390fd5b8673ffffffffffffffffffffffffffffffffffffffff168173ffffffffffffffffffffffffffffffffffffffff161491505095945050505050565b600081836105499190610c59565b905092915050565b6000604051806080016040528060438152602001610e3460439139805190602001208260000151836020015184604001518051906020012060405160200161059c9493929190610a6e565b604051602081830303815290604052805190602001209050919050565b60006105c36105f2565b826040516020016105d59291906109f9565b604051602081830303815290604052805190602001209050919050565b60008054905090565b600061060e61060984610be6565b610bb5565b90508281526020810184848401111561062657600080fd5b610631848285610d02565b509392505050565b60008135905061064881610dee565b92915050565b60008135905061065d81610e05565b92915050565b600082601f83011261067457600080fd5b81356106848482602086016105fb565b91505092915050565b60008135905061069c81610e1c565b92915050565b6000602082840312156106b457600080fd5b60006106c284828501610639565b91505092915050565b600080600080600060a086880312156106e357600080fd5b60006106f188828901610639565b955050602086013567ffffffffffffffff81111561070e57600080fd5b61071a88828901610663565b945050604061072b8882890161064e565b935050606061073c8882890161064e565b925050608061074d8882890161068d565b9150509295509295909350565b61076381610caf565b82525050565b61077a61077582610caf565b610d44565b82525050565b61078981610cc1565b82525050565b6107a061079b82610cc1565b610d56565b82525050565b60006107b182610c16565b6107bb8185610c21565b93506107cb818560208601610d11565b6107d481610dd0565b840191505092915050565b60006107ea82610c16565b6107f48185610c32565b9350610804818560208601610d11565b80840191505092915050565b600061081d601c83610c3d565b91507f46756e6374696f6e2063616c6c206e6f74207375636365737366756c000000006000830152602082019050919050565b600061085d603d83610c3d565b91507f66756e6374696f6e5369676e61747572652063616e206e6f74206265206f662060008301527f657865637574654d6574615472616e73616374696f6e206d6574686f640000006020830152604082019050919050565b60006108c3600283610c4e565b91507f19010000000000000000000000000000000000000000000000000000000000006000830152600282019050919050565b6000610903601183610c3d565b91507f496e76616c6964207369676e61747572650000000000000000000000000000006000830152602082019050919050565b6000610943602183610c3d565b91507f5369676e657220616e64207369676e617475726520646f206e6f74206d61746360008301527f68000000000000000000000000000000000000000000000000000000000000006020830152604082019050919050565b6109a581610ceb565b82525050565b6109b481610cf5565b82525050565b60006109c682846107df565b915081905092915050565b60006109dd82856107df565b91506109e98284610769565b6014820191508190509392505050565b6000610a04826108b6565b9150610a10828561078f565b602082019150610a20828461078f565b6020820191508190509392505050565b6000606082019050610a45600083018661075a565b610a52602083018561075a565b8181036040830152610a6481846107a6565b9050949350505050565b6000608082019050610a836000830187610780565b610a90602083018661099c565b610a9d604083018561075a565b610aaa6060830184610780565b95945050505050565b6000608082019050610ac86000830187610780565b610ad560208301866109ab565b610ae26040830185610780565b610aef6060830184610780565b95945050505050565b60006020820190508181036000830152610b1281846107a6565b905092915050565b60006020820190508181036000830152610b3381610810565b9050919050565b60006020820190508181036000830152610b5381610850565b9050919050565b60006020820190508181036000830152610b73816108f6565b9050919050565b60006020820190508181036000830152610b9381610936565b9050919050565b6000602082019050610baf600083018461099c565b92915050565b6000604051905081810181811067ffffffffffffffff82111715610bdc57610bdb610da1565b5b8060405250919050565b600067ffffffffffffffff821115610c0157610c00610da1565b5b601f19601f8301169050602081019050919050565b600081519050919050565b600082825260208201905092915050565b600081905092915050565b600082825260208201905092915050565b600081905092915050565b6000610c6482610ceb565b9150610c6f83610ceb565b9250827fffffffffffffffffffffffffffffffffffffffffffffffffffffffffffffffff03821115610ca457610ca3610d72565b5b828201905092915050565b6000610cba82610ccb565b9050919050565b6000819050919050565b600073ffffffffffffffffffffffffffffffffffffffff82169050919050565b6000819050919050565b600060ff82169050919050565b82818337600083830152505050565b60005b83811015610d2f578082015181840152602081019050610d14565b83811115610d3e576000848401525b50505050565b6000610d4f82610d60565b9050919050565b6000819050919050565b6000610d6b82610de1565b9050919050565b7f4e487b7100000000000000000000000000000000000000000000000000000000600052601160045260246000fd5b7f4e487b7100000000000000000000000000000000000000000000000000000000600052604160045260246000fd5b6000601f19601f8301169050919050565b60008160601b9050919050565b610df781610caf565b8114610e0257600080fd5b50565b610e0e81610cc1565b8114610e1957600080fd5b50565b610e2581610cf5565b8114610e3057600080fd5b5056fe4d6574615472616e73616374696f6e2875696e74323536206e6f6e63652c616464726573732066726f6d2c62797465732066756e6374696f6e5369676e617475726529a26469706673582212203bb5ad0bbe587af81beaf05f171bbda69338e127163478381297ee4b058824cc64736f6c63430008000033454950373132446f6d61696e28737472696e67206e616d652c737472696e672076657273696f6e2c6164647265737320766572696679696e67436f6e74726163742c627974657333322073616c7429",
  "linkReferences": {},
  "deployedLinkReferences": {}
}