{
  "_format": "hh-sol-artifact-1",
  "contractName": "BasicMetaTransaction",
  "sourceName": "contracts/BasicMetaTransaction.sol",
  "abi": [
    {
      "anonymous": false,
      "inputs": [
        {
          "indexed": false,
          "internalType": "address",
          "name": "userAddress",
          "type": "address"
        },
        {
          "indexed": false,
          "internalType": "address",
          "name": "relayerAddress",
          "type": "address"
        },
        {
          "indexed": false,
          "internalType": "bytes",
          "name": "functionSignature",
          "type": "bytes"
        }
      ],
      "name": "MetaTransactionExecuted",
      "type": "event"
    },
    {
      "inputs": [
        {
          "internalType": "address",
          "name": "userAddress",
          "type": "address"
        },
        {
          "internalType": "bytes",
          "name": "functionSignature",
          "type": "bytes"
        },
        {
          "internalType": "bytes32",
          "name": "sigR",
          "type": "bytes32"
        },
        {
          "internalType": "bytes32",
          "name": "sigS",
          "type": "bytes32"
        },
        {
          "internalType": "uint8",
          "name": "sigV",
          "type": "uint8"
        }
      ],
      "name": "executeMetaTransaction",
      "outputs": [
        {
          "internalType": "bytes",
          "name": "",
          "type": "bytes"
        }
      ],
      "stateMutability": "payable",
      "type": "function"
    },
    {
      "inputs": [],
      "name": "getChainID",
      "outputs": [
        {
          "internalType": "uint256",
          "name": "",
          "type": "uint256"
        }
      ],
      "stateMutability": "view",
      "type": "function"
    },
    {
      "inputs": [
        {
          "internalType": "address",
          "name": "user",
          "type": "address"
        }
      ],
      "name": "getNonce",
      "outputs": [
        {
          "internalType": "uint256",
          "name": "nonce",
          "type": "uint256"
        }
      ],
      "stateMutability": "view",
      "type": "function"
    },
    {
      "inputs": [
        {
          "internalType": "address",
          "name": "owner",
          "type": "address"
        },
        {
          "internalType": "uint256",
          "name": "nonce",
          "type": "uint256"
        },
        {
          "internalType": "uint256",
          "name": "chainID",
          "type": "uint256"
        },
        {
          "internalType": "bytes",
          "name": "functionSignature",
          "type": "bytes"
        },
        {
          "internalType": "bytes32",
          "name": "sigR",
          "type": "bytes32"
        },
        {
          "internalType": "bytes32",
          "name": "sigS",
          "type": "bytes32"
        },
        {
          "internalType": "uint8",
          "name": "sigV",
          "type": "uint8"
        }
      ],
      "name": "verify",
      "outputs": [
        {
          "internalType": "bool",
          "name": "",
          "type": "bool"
        }
      ],
      "stateMutability": "view",
      "type": "function"
    }
  ],
  "bytecode": "0x608060405234801561001057600080fd5b50610e81806100206000396000f3fe60806040526004361061003f5760003560e01c80630c53c51c146100445780632d0335ab14610074578063564b81ef146100b15780636281133d146100dc575b600080fd5b61005e60048036038101906100599190610616565b610119565b60405161006b9190610adf565b60405180910390f35b34801561008057600080fd5b5061009b600480360381019061009691906105ed565b61035b565b6040516100a89190610b61565b60405180910390f35b3480156100bd57600080fd5b506100c66103a3565b6040516100d39190610b61565b60405180910390f35b3480156100e857600080fd5b5061010360048036038101906100fe91906106a5565b6103b0565b6040516101109190610a7f565b60405180910390f35b606061016f866000808973ffffffffffffffffffffffffffffffffffffffff1673ffffffffffffffffffffffffffffffffffffffff168152602001908152602001600020546101666103a3565b888888886103b0565b6101ae576040517f08c379a00000000000000000000000000000000000000000000000000000000081526004016101a590610b41565b60405180910390fd5b61020060016000808973ffffffffffffffffffffffffffffffffffffffff1673ffffffffffffffffffffffffffffffffffffffff168152602001908152602001600020546104eb90919063ffffffff16565b6000808873ffffffffffffffffffffffffffffffffffffffff1673ffffffffffffffffffffffffffffffffffffffff168152602001908152602001600020819055506000803073ffffffffffffffffffffffffffffffffffffffff16878960405160200161026f9291906109a9565b60405160208183030381529060405260405161028b9190610992565b6000604051808303816000865af19150503d80600081146102c8576040519150601f19603f3d011682016040523d82523d6000602084013e6102cd565b606091505b509150915081610312576040517f08c379a000000000000000000000000000000000000000000000000000000000815260040161030990610b01565b60405180910390fd5b7f5845892132946850460bff5a0083f71031bc5bf9aadcd40f1de79423eac9b10b88338960405161034593929190610a41565b60405180910390a1809250505095945050505050565b60008060008373ffffffffffffffffffffffffffffffffffffffff1673ffffffffffffffffffffffffffffffffffffffff168152602001908152602001600020549050919050565b6000804690508091505090565b6000806103e8883089896040516020016103cd94939291906109f7565b60405160208183030381529060405280519060200120610501565b905060006001828588886040516000815260200160405260405161040f9493929190610a9a565b6020604051602081039080840390855afa158015610431573d6000803e3d6000fd5b505050602060405103519050600073ffffffffffffffffffffffffffffffffffffffff168173ffffffffffffffffffffffffffffffffffffffff1614156104ad576040517f08c379a00000000000000000000000000000000000000000000000000000000081526004016104a490610b21565b60405180910390fd5b8073ffffffffffffffffffffffffffffffffffffffff168a73ffffffffffffffffffffffffffffffffffffffff161492505050979650505050505050565b600081836104f99190610c20565b905092915050565b60008160405160200161051491906109d1565b604051602081830303815290604052805190602001209050919050565b600061054461053f84610bad565b610b7c565b90508281526020810184848401111561055c57600080fd5b610567848285610cf9565b509392505050565b60008135905061057e81610def565b92915050565b60008135905061059381610e06565b92915050565b600082601f8301126105aa57600080fd5b81356105ba848260208601610531565b91505092915050565b6000813590506105d281610e1d565b92915050565b6000813590506105e781610e34565b92915050565b6000602082840312156105ff57600080fd5b600061060d8482850161056f565b91505092915050565b600080600080600060a0868803121561062e57600080fd5b600061063c8882890161056f565b955050602086013567ffffffffffffffff81111561065957600080fd5b61066588828901610599565b945050604061067688828901610584565b935050606061068788828901610584565b9250506080610698888289016105d8565b9150509295509295909350565b600080600080600080600060e0888a0312156106c057600080fd5b60006106ce8a828b0161056f565b97505060206106df8a828b016105c3565b96505060406106f08a828b016105c3565b955050606088013567ffffffffffffffff81111561070d57600080fd5b6107198a828b01610599565b945050608061072a8a828b01610584565b93505060a061073b8a828b01610584565b92505060c061074c8a828b016105d8565b91505092959891949750929550565b61076481610c76565b82525050565b61077b61077682610c76565b610d3b565b82525050565b61078a81610c88565b82525050565b61079981610c94565b82525050565b6107b06107ab82610c94565b610d4d565b82525050565b60006107c182610bdd565b6107cb8185610be8565b93506107db818560208601610d08565b6107e481610dd1565b840191505092915050565b60006107fa82610bdd565b6108048185610bf9565b9350610814818560208601610d08565b80840191505092915050565b61083161082c82610cd5565b610d3b565b82525050565b6000610844601c83610c15565b91507f19457468657265756d205369676e6564204d6573736167653a0a3332000000006000830152601c82019050919050565b6000610884601c83610c04565b91507f46756e6374696f6e2063616c6c206e6f74207375636365737366756c000000006000830152602082019050919050565b60006108c4601183610c04565b91507f496e76616c6964207369676e61747572650000000000000000000000000000006000830152602082019050919050565b6000610904602183610c04565b91507f5369676e657220616e64207369676e617475726520646f206e6f74206d61746360008301527f68000000000000000000000000000000000000000000000000000000000000006020830152604082019050919050565b61096681610cbe565b82525050565b61097d61097882610cbe565b610d69565b82525050565b61098c81610cc8565b82525050565b600061099e82846107ef565b915081905092915050565b60006109b582856107ef565b91506109c1828461076a565b6014820191508190509392505050565b60006109dc82610837565b91506109e8828461079f565b60208201915081905092915050565b6000610a03828761096c565b602082019150610a138286610820565b601482019150610a23828561096c565b602082019150610a3382846107ef565b915081905095945050505050565b6000606082019050610a56600083018661075b565b610a63602083018561075b565b8181036040830152610a7581846107b6565b9050949350505050565b6000602082019050610a946000830184610781565b92915050565b6000608082019050610aaf6000830187610790565b610abc6020830186610983565b610ac96040830185610790565b610ad66060830184610790565b95945050505050565b60006020820190508181036000830152610af981846107b6565b905092915050565b60006020820190508181036000830152610b1a81610877565b9050919050565b60006020820190508181036000830152610b3a816108b7565b9050919050565b60006020820190508181036000830152610b5a816108f7565b9050919050565b6000602082019050610b76600083018461095d565b92915050565b6000604051905081810181811067ffffffffffffffff82111715610ba357610ba2610da2565b5b8060405250919050565b600067ffffffffffffffff821115610bc857610bc7610da2565b5b601f19601f8301169050602081019050919050565b600081519050919050565b600082825260208201905092915050565b600081905092915050565b600082825260208201905092915050565b600081905092915050565b6000610c2b82610cbe565b9150610c3683610cbe565b9250827fffffffffffffffffffffffffffffffffffffffffffffffffffffffffffffffff03821115610c6b57610c6a610d73565b5b828201905092915050565b6000610c8182610c9e565b9050919050565b60008115159050919050565b6000819050919050565b600073ffffffffffffffffffffffffffffffffffffffff82169050919050565b6000819050919050565b600060ff82169050919050565b6000610ce082610ce7565b9050919050565b6000610cf282610c9e565b9050919050565b82818337600083830152505050565b60005b83811015610d26578082015181840152602081019050610d0b565b83811115610d35576000848401525b50505050565b6000610d4682610d57565b9050919050565b6000819050919050565b6000610d6282610de2565b9050919050565b6000819050919050565b7f4e487b7100000000000000000000000000000000000000000000000000000000600052601160045260246000fd5b7f4e487b7100000000000000000000000000000000000000000000000000000000600052604160045260246000fd5b6000601f19601f8301169050919050565b60008160601b9050919050565b610df881610c76565b8114610e0357600080fd5b50565b610e0f81610c94565b8114610e1a57600080fd5b50565b610e2681610cbe565b8114610e3157600080fd5b50565b610e3d81610cc8565b8114610e4857600080fd5b5056fea26469706673582212209cc8d3d156141356cc134106e5b4e1f66b29567bfd5c66cbaa3449049c1f368164736f6c63430008000033",
  "linkReferences": {},
  "deployedLinkReferences": {}
}